:1000000045C0000052C100005FC000005DC000009C
:100010005BC0000059C0000057C0000055C0000080
:1000200053C0000051C000004FC000004DC0000090
:100030004BC0000049C0000047C0000045C00000A0
:1000400045C2000041C000003FC000003DC00000AC
:100050003BC0000039C0000037C0000035C00000C0
:1000600033C0000031C000002FC000002DC00000D0
:100070002BC0000029C0000027C0000025C00000E0
:1000800023C0000021C000001FC0000011241FBEBB
:10009000CFEFD0E1DEBFCDBF13E0A0E0B1E0ECE4F4
:1000A000F1E100E00BBF02C007900D92A23FB10743
:1000B000D9F728E0A2EFB3E001C01D92A430B20747
:1000C000E1F795D20C94A4089BCF1BBA8FEF8ABBA3
:1000D00088BB87BB15BA90EF94BB82BB11BA13B82B
:1000E00082B91092620010926100089582E08093BC
:1000F0006A0081E089BF089582B790E0CCD7C8D765
:10010000209106016AE270E0621B710958D7865F90
:100110008093FF03820F8093FB03BAD720910601DF
:100120006EE770E0621B71094AD78093FC03820F6F
:100130008093FD03089503D343EE52E060E081E035
:100140005CD348EF52E060E082E057D34DE053E0EB
:1001500060E083E052D342E253E060E084E04DD3BC
:1001600047E353E060E085E048D343EE52E060E0CF
:1001700086E043C30895CF93C82FE1D280D243EEE7
:1001800052E060E081E039D34CE453E060E082E08B
:1001900034D34DE053E060E083E02FD34DE053E0F3
:1001A00060E084E02AD341E653E060E085E025D3B7
:1001B0006FE085E0DFD28C2F55D540E253E063E15C
:1001C00085E01BD343EE52E060E086E016D3CF918A
:1001D000089513BEB4D243EE52E060E081E00DD347
:1001E00042E753E060E082E008D347E853E060E094
:1001F00083E003D34DE053E060E084E0FED241E6CB
:1002000053E060E085E0F9D26FE085E0B3D2809101
:10021000F80328D540E253E063E185E0EED243EEF7
:1002200052E060E086E0E9C2089589D243EE52E0F0
:1002300060E081E0E2D24CE953E060E082E0DDD2B0
:100240004DE053E060E083E0D8D241EB53E060E062
:1002500084E0D3D246EC53E060E085E0CED243EEBA
:1002600052E060E086E0C9D284E1809306010895FF
:10027000809105019091FF03981788F49091FB03FA
:10028000891778F4909104018091FC03891758F440
:1002900081E02091FD03921738F080E0089580E01E
:1002A000089580E0089580E008951F920F920FB6A0
:1002B0000F9211240BB60F922F933F934F935F939E
:1002C0006F937F938F939F93AF93BF93EF93FF931E
:1002D000CFDF882339F1C8D10FDF809106018B3041
:1002E00020F083508093060108C08091F7038F5F50
:1002F0008093F703863008F06CDF1092FA031092B7
:10030000F9038091F8038F5F8093F8038091F703DE
:10031000813021F485E0809307010AC083E0809357
:10032000070106C0ACD113BE8091F80390E023DF33
:10033000FF91EF91BF91AF919F918F917F916F91BD
:100340005F914F913F912F910F900BBE0F900FBE79
:100350000F901F90189516B817B880E888B983ECED
:1003600086B9089587E083BF12BE80E88FBF81E021
:1003700087BF089593EC96B9806487B9369A349B09
:10038000FECF24B185B116B890E0982F8827820F50
:10039000911D089583E0EEDF9C0136952795A5E237
:1003A000B9E420D6969587959093F5038093F4034E
:1003B00084E0E0DF96958795969587959695879545
:1003C0009093F3038093F2032091F703253019F4FF
:1003D0002093FE0303C027E02093FE032091F40343
:1003E0003091F5032432310540F42091050130911C
:1003F000FE03231B209305010AC02532310538F086
:10040000309105012091FE03230F209305018034D4
:10041000910540F0809104019091FE03891B809327
:10042000040109C0CF9738F4909104018091FE0334
:10043000890F8093040142E06091040180910501DD
:1004400010C308951F93CF93DF93182FD62FC42F77
:10045000433021F0453019F4C3E001C0C2E06FD150
:100460002FE745E360E089E0DED294DF2091FD03D1
:100470004091FB036091FC038091FF03D4D24BEDCC
:1004800053E060E080E0B9D140EE53E06DE080E001
:10049000B4D162E180E06ED18C2FE4D346EE53E01C
:1004A00060E087E0AAD164E087E064D1812FDAD3ED
:1004B0004BEE53E06DE087E0A0D162E187E05AD1D6
:1004C0008D2FD0D3DF91CF911F9108951F920F925E
:1004D0000FB60F9211240BB60F922F933F934F93A9
:1004E0005F936F937F938F939F93AF93BF93EF939C
:1004F000FF934091F703442309F453C0423009F4B9
:1005000045C04430C9F442C08091F9039091FA0388
:100510008037910509F050C08091F7038F5F809379
:10052000F7031092FA031092F903E6DDE5E6F0E036
:1005300080818061808340C08091F9039091FA03AB
:1005400001969093FA038093F9030E97A9F5809191
:100550000701882381F06091F80374DF8091F6032E
:100560008F5F8093F603837061F48091070181505F
:100570008093070106C013BE82D08091F80390E0FB
:10058000FADD1092FA031092F90316C08091F90374
:100590009091FA0301969093FA038093F90345DE54
:1005A000B3CF8091F9039091FA0301969093FA03E7
:1005B0008093F903C0DDA8CFFF91EF91BF91AF9178
:1005C0009F918F917F916F915F914F913F912F916B
:1005D0000F900BBE0F900FBE0F901F901895F894C0
:1005E00074DDB9DEBED0BEDE81DD78940895F7DF1C
:1005F000FFCF181619065CF420E030E045E04A957C
:10060000F1F700002F5F3F4F82179307B9F7089566
:10061000EF92FF920F931F93CF93DF937B0128EE0E
:1006200033E0AC01429FC001439F900D529F900D5B
:100630001124B1D46115710581F08B01C5E6D0E0BC
:10064000888180618883C701D4DF88818F7E888319
:10065000C701CFDF0150110999F7DF91CF911F91A9
:100660000F91FF90EF90089568EC70E083E290E0C6
:10067000CFDF66E870E083E290E0CACF08956BE8D0
:1006800071E08EE190E0C4CF08951D9A91E39A95B0
:10069000F1F700001C981E981F9A8BBB81E38A9586
:1006A000F1F700001D9808951D9A91E39A95F1F7CE
:1006B00000001C981E9A1F988BBB81E38A95F1F766
:1006C00000001D9808951D9A91E39A95F1F7000096
:1006D0001C981E9A1F9A8BBB81E38A95F1F7000044
:1006E0001D9808951D9A91E39A95F1F700001C9AC0
:1006F0001E981F9A8BBB81E38A95F1F700001D9825
:1007000008951D9A91E39A95F1F700001C9A1E9A9C
:100710001F988BBB81E38A95F1F700001D9808951F
:100720001D9A91E39A95F1F700001C9A1E9A1F9A60
:100730008BBB81E38A95F1F700001D980895CF9354
:10074000DF93D8EB8D2FBFDF80E4BDDFC0E480E016
:10075000E7DFC150E1F7DF5FD03CA1F7DF91CF9138
:1007600008958FE3B0DF80ECAEDF88EBACDF80E490
:10077000AACF089580930004609303088854A3DFF0
:10078000809103088A3038F4982F990F890F880FC9
:100790008C5B7BCF089590E00A97982F990F890F73
:1007A000880F805C81CF08951F93CF93DF9390E0F3
:1007B000EC01CC0FDD1FCC0FDD1F8C0F9D1FEC015A
:1007C000C859DF4F15E0809103088A3018F48881FA
:1007D00089DF02C0888195DF115021961111F3CF76
:1007E000809103088A3018F480E07CDF02C080E04A
:1007F00088DFDF91CF911F910895CF93DF93EA01B6
:100800008093000460930308B5DF8881882381F01A
:10081000809103088A3011F480E446DF8991C4DFB7
:10082000809103088F5F8093030888818111F0CF46
:10083000DF91CF910895CF93C62F885444DFC03401
:1008400020F480E48C0F21DF02C08C2F2DDFCF91AC
:100850000895EF92FF920F931F93CF93803408F087
:1008600054C066230CF451C0282F26952695269552
:10087000982F977071F0913071F0923071F0933041
:1008800071F0943071F0953071F0963071F090E81D
:100890000DC091E00BC092E009C094E007C098E061
:1008A00005C090E103C090E201C090E4C62F022F82
:1008B00010E0E62EF12CF801F695FE2FEE27F795C5
:1008C000E795ED5FFB4FEE0DFF1D8081982B908328
:1008D000822FB1DFC03468F41695102F00271795CA
:1008E00007950D5F1B4FF801EE0DFF1D8081FADEAD
:1008F0000CC01695102F0027179507950D5F1B4FFD
:10090000F801EE0DFF1D8081FCDECF911F910F914C
:10091000FF90EF9008958F929F92AF92BF92CF92E7
:10092000DF92EF92FF920F931F93CF93DF936217A3
:1009300009F447C0621718F570E0022F10E006179F
:1009400017070CF463C0C82FD0E0C42ED12CCC1AEA
:10095000DD0A4B01E12CF12C5801A61AB70AC70198
:10096000B5012DD3862F682D8C0F73DF8FEF881A7A
:10097000980AEC0CFD1C081519058CF747C070E0AF
:10098000022F10E0601771070CF440C0C82FD0E0B0
:100990005E01A41AB1084B01E12CF12C6801C61AC2
:1009A000D70AC701B6010BD3862F682D8C0F51DFF4
:1009B00081E0881A9108EA0CFB1C801691068CF7DE
:1009C00025C0841711F1841780F4C82FD0E0E42EDD
:1009D000F12CEC16FD06D4F0162F612F8C2F39DF89
:1009E0002196EC16FD06CCF711C0C82FD0E0E42EFE
:1009F000F12CCE15DF0554F0162F612F8C2F29DF37
:100A00002197CE15DF05CCF701C023DFDF91CF9111
:100A10001F910F91FF90EF90DF90CF90BF90AF901C
:100A20009F908F9008950F931F93CF93DF93C82FBC
:100A3000062F142FD22F482F6EDF2D2F412F602F1E
:100A4000812F69DF202F412F602F8C2F64DF2D2F06
:100A5000412F6D2F8C2F5FDFDF91CF911F910F9171
:100A600008952F923F924F925F926F927F928F9252
:100A70009F92AF92BF92CF92DF92EF92FF920F932D
:100A80001F93CF93DF93CDB7DEB729970FB6F894B6
:100A9000DEBF0FBECDBF8F83C62ED12C242F30E0FA
:100AA0003C832B835901AA0CBB1CA20EB31EC501AB
:100AB00095958795959587959E838D837601E81A00
:100AC000F90A4C018C0C9D1C8E149F040CF447C039
:100AD000229F1001239F300C300C112496013A8381
:100AE00029833F81A32EB12CC70129813A81821B22
:100AF000930B889F9001899F300D300D11242101A7
:100B0000421A530A052C000C66087708C301B2018B
:100B10005FD1EED120E030E040E05FE3C7D02AD1E2
:100B2000062F10E0C501801B910B998788870A0D5D
:100B30001B1D0817190764F06E2D88858ADE28852D
:100B400039852F5F3F4F3987288702171307A4F78E
:100B50003FEFE31AF30A8E149F040CF0C5CF8F8188
:100B6000A82EB12C75012D813E81E21AF30AA20E46
:100B7000B31EAE14BF040CF442C08B819C81889FCD
:100B80004001899F900C900C11249F81292E312CBB
:100B9000C70182199309889F9001899F300D300DFC
:100BA00011242401421A530A052C000C6608770808
:100BB000C301B2010DD19CD120E030E040E05FE301
:100BC00075D0D8D0062F10E09601201B310B3A8348
:100BD00029830C0D1D1D021713075CF069818E2DF2
:100BE00038DE89819A8101969A83898308171907CB
:100BF000ACF79FEFE91AF90AAE14BF044CF6299638
:100C00000FB6F894DEBF0FBECDBFDF91CF911F911D
:100C10000F91FF90EF90DF90CF90BF90AF909F909B
:100C20008F907F906F905F904F903F902F9008959E
:100C30009DEC899F912D1124969596959695990FE7
:100C4000292F220F220F920F891B982F31F4611147
:100C500004C080E2A9DD80E0089580E3890FA4DD6F
:100C600081E00895CF93DF93C9E28C9FC12D1124B9
:100C7000C295CF7094E6C99F80191124C82FDDEC6E
:100C80008D9FD12D1124D695D695D69560E08D2FC8
:100C9000CFDFDD0F8D2F880F880FD80F8C2F8D1B86
:100CA000805D82DDDF91CF9108955058BB27AA2740
:100CB0000ED0E0C0D1D030F0D6D020F031F49F3F3C
:100CC00011F41EF4C6C00EF4E095E7FBBCC0E92F9A
:100CD000E2D080F3BA17620773078407950718F00C
:100CE00071F49EF5FAC00EF4E0950B2EBA2FA02DEC
:100CF0000B01B90190010C01CA01A0011124FF27C9
:100D0000591B99F0593F50F4503E68F11A16F040C3
:100D1000A22F232F342F4427585FF3CF46953795C2
:100D20002795A795F0405395C9F77EF41F16BA0B87
:100D3000620B730B840BBAF09150A1F0FF0FBB1F35
:100D4000661F771F881FC2F70EC0BA0F621F731F7E
:100D5000841F48F4879577956795B795F7959E3FDB
:100D600008F0B3CF9395880F08F09927EE0F979569
:100D70008795089598D088F09F5790F0B92F9927BC
:100D8000B751A0F0D1F0660F771F881F991F1AF096
:100D9000BA95C9F712C0B13081F09FD0B1E0089583
:100DA0009CC0672F782F8827B85F39F0B93FCCF304
:100DB000869577956795B395D9F73EF4909580958C
:100DC000709561957F4F8F4F9F4F0895E89409C0AC
:100DD00097FB3EF490958095709561957F4F8F4F6E
:100DE0009F4F9923A9F0F92F96E9BB279395F69584
:100DF000879577956795B795F111F8CFFAF4BB0F02
:100E000011F460FF1BC06F5F7F4F8F4F9F4F16C065
:100E1000882311F096E911C0772321F09EE8872FEF
:100E2000762F05C0662371F096E8862F70E060E0AB
:100E30002AF09A95660F771F881FDAF7880F969524
:100E4000879597F9089597F99F6780E870E060E0CB
:100E500008959FEF80EC089500240A941616170653
:100E600018060906089500240A941216130614069B
:100E700005060895092E0394000C11F4882352F0FE
:100E8000BB0F40F4BF2B11F460FF04C06F5F7F4FB6
:100E90008F4F9F4F089557FD9058440F551F59F09D
:100EA0005F3F71F04795880F97FB991F61F09F3F57
:100EB00079F087950895121613061406551FF2CF80
:100EC0004695F1DF08C0161617061806991FF1CFD0
:100ED00086957105610508940895E894BB276627F7
:100EE0007727CB0197F9089511F40EF4B2CF3EC0E5
:100EF000DADFD0F39923D9F3CEF39F57550B87FF51
:100F000043D00024A0E640EA90018058569597957A
:100F100028F4805C660F771F881F20F0261737079C
:100F2000480730F4621B730B840B202931294A2BAC
:100F3000A69517940794202531254A2758F7660F60
:100F4000771F881F20F026173707480730F4620BF9
:100F5000730B840B200D311D411DA09581F7B90144
:100F6000842F9158880F9695879508959F3F31F06B
:100F7000915020F4879577956795B795880F911DC7
:100F80009695879597F9089591505040660F771F71
:100F9000881FD2F70895AA1BBB1B51E107C0AA1FE7
:100FA000BB1FA617B70710F0A61BB70B881F991F0A
:100FB0005A95A9F780959095BC01CD01089597FBAE
:100FC000072E16F4009406D077FD08D0E4DF07FC66
:100FD00005D03EF4909581959F4F08957095619549
:100FE0007F4F0895A29FB001B39FC001A39F700DD2
:100FF000811D1124911DB29F700D811D1124911D21
:1010000008958F929F92AF92BF92CF92DF92EF920C
:10101000FF92CF93DF93EC01688179818A819B8174
:10102000611571058105910521F464E279ED8BE587
:1010300097E02DE133EF41E050E038D049015A010B
:101040009B01AC01A7EAB1E44DD06B017C01ACEE91
:10105000B4EFA501940152D0DC01CB018C0D9D1D94
:10106000AE1DBF1DB7FF03C00197A109B04888831B
:101070009983AA83BB839F77DF91CF91FF90EF90F5
:10108000DF90CF90BF90AF909F908F900895B9CF91
:1010900080E091E0B6CFA0E0B0E0809300019093B3
:1010A0000101A0930201B09303010895052E97FB5F
:1010B00016F400940FD057FD05D024D007FC02D0C1
:1010C00046F408C050954095309521953F4F4F4FBD
:1010D0005F4F089590958095709561957F4F8F4FE4
:1010E0009F4F08957FDFA59F900DB49F900DA49F03
:1010F000800D911D11240895B7FFF4CFF3DF821BFB
:10110000930B0895A1E21A2EAA1BBB1BFD010DC073
:10111000AA1FBB1FEE1FFF1FA217B307E407F507A7
:1011200020F0A21BB30BE40BF50B661F771F881F83
:10113000991F1A9469F760957095809590959B0119
:0C114000AC01BD01CF010895F894FFCF71
:10114C00010000003F1F1405000000000000004FCC
:10115C0000000007000700147F147F14242A7F2A44
:10116C00122313086462364955225000050300000F
:10117C00001C2241000041221C0014083E081408E7
:10118C00083E0808005030000008080808080060F5
:10119C0060000020100804023E5149453E00427F89
:1011AC00400042615149462141454B311814127F90
:1011BC001027454545393C4A494930017109050319
:1011CC003649494936064949291E00363600000081
:1011DC005636000008142241001414141414004153
:1011EC002214080201510906324979413E7E11113F
:1011FC00117E7F494949363E414141227F4141227E
:10120C001C7F494949417F090909013E4149497AF5
:10121C007F0808087F00417F41002040413F017F4B
:10122C00081422417F404040407F020C027F7F0423
:10123C0008107F3E4141413E7F090909063E41515C
:10124C00215E7F09192946264949493201017F014E
:10125C00013F4040403F1F2040201F3F4038403F4F
:10126C00631408146307087008076151494543006B
:10127C007F41410002040810200041417F0004021C
:10128C00010204404040404000010204002054543C
:10129C0054787F48444438384444442038444448C3
:1012AC007F3854545418087E0901020C5252523E95
:1012BC007F0804047800047D00002040443D007F3A
:1012CC001028440000417F40007C0418047C7C08FA
:1012DC0004047838444444387C1414140808141456
:1012EC00187C7C080404084854545420043F44409F
:1012FC00203C4040207C1C2040201C3C4030403C8A
:10130C0044281028440C5050503C4464544C440025
:10131C000836410000007700000041360800080440
:10132C000810083D3D3D3D3D3D3D3D3D3D3D3D3D78
:10133C003D3D3D3D3D3D3D002A20202020202047C5
:10134C002041204D204520202020202A002A20202A
:10135C002020202020202020202020202020202081
:10136C002A002A2020202020202020424F582020F4
:10137C0020202020202A002A202020202020534812
:10138C004F5454455220202020202A002A2020206F
:10139C0047414D452020204F564552212020202AE0
:1013AC00002A20594F55522053434F5245203A2082
:1013BC0020002A20202057454C4C202020444F4E02
:1013CC0045212020202A002A20202020594F55205A
:1013DC00202057494E21202020202A002A2020207E
:1013EC00202020434C454152212020202020202A1F
:1013FC00002A20202020524541445920464F52209B
:10140C00202020202A002A2020204E45585420201D
:10141C005354414745212020202A00504C4159006B
:10142C0053544147450054696D650053636F7265B1
:02143C000000AE
:00000001FF
